{
  "contractName": "FileStore",
  "abi": [
    {
      "inputs": [
        {
          "internalType": "string",
          "name": "cid",
          "type": "string"
        }
      ],
      "name": "saveCid",
      "outputs": [],
      "stateMutability": "nonpayable",
      "type": "function"
    },
    {
      "inputs": [],
      "name": "getCids",
      "outputs": [
        {
          "internalType": "string[]",
          "name": "",
          "type": "string[]"
        }
      ],
      "stateMutability": "view",
      "type": "function",
      "constant": true
    }
  ],
  "bytecode": "0x608060405234801561001057600080fd5b506105d6806100206000396000f3fe608060405234801561001057600080fd5b50600436106100365760003560e01c806330a29d391461003b578063e5fae3e714610059575b600080fd5b610043610075565b604051610050919061038b565b60405180910390f35b610073600480360381019061006e91906104f6565b61014e565b005b60606000805480602002602001604051908101604052809291908181526020016000905b828210156101455783829060005260206000200180546100b89061056e565b80601f01602080910402602001604051908101604052809291908181526020018280546100e49061056e565b80156101315780601f1061010657610100808354040283529160200191610131565b820191906000526020600020905b81548152906001019060200180831161011457829003601f168201915b505050505081526020019060010190610099565b50505050905090565b60008190806001815401808255809150506001900390600052602060002001600090919091909150908051906020019061018992919061018d565b5050565b8280546101999061056e565b90600052602060002090601f0160209004810192826101bb5760008555610202565b82601f106101d457805160ff1916838001178555610202565b82800160010185558215610202579182015b828111156102015782518255916020019190600101906101e6565b5b50905061020f9190610213565b5090565b5b8082111561022c576000816000905550600101610214565b5090565b600081519050919050565b600082825260208201905092915050565b6000819050602082019050919050565b600081519050919050565b600082825260208201905092915050565b60005b8381101561029657808201518184015260208101905061027b565b838111156102a5576000848401525b50505050565b6000601f19601f8301169050919050565b60006102c78261025c565b6102d18185610267565b93506102e1818560208601610278565b6102ea816102ab565b840191505092915050565b600061030183836102bc565b905092915050565b6000602082019050919050565b600061032182610230565b61032b818561023b565b93508360208202850161033d8561024c565b8060005b85811015610379578484038952815161035a85826102f5565b945061036583610309565b925060208a01995050600181019050610341565b50829750879550505050505092915050565b600060208201905081810360008301526103a58184610316565b905092915050565b6000604051905090565b600080fd5b600080fd5b600080fd5b600080fd5b7f4e487b7100000000000000000000000000000000000000000000000000000000600052604160045260246000fd5b610403826102ab565b810181811067ffffffffffffffff82111715610422576104216103cb565b5b80604052505050565b60006104356103ad565b905061044182826103fa565b919050565b600067ffffffffffffffff821115610461576104606103cb565b5b61046a826102ab565b9050602081019050919050565b82818337600083830152505050565b600061049961049484610446565b61042b565b9050828152602081018484840111156104b5576104b46103c6565b5b6104c0848285610477565b509392505050565b600082601f8301126104dd576104dc6103c1565b5b81356104ed848260208601610486565b91505092915050565b60006020828403121561050c5761050b6103b7565b5b600082013567ffffffffffffffff81111561052a576105296103bc565b5b610536848285016104c8565b91505092915050565b7f4e487b7100000000000000000000000000000000000000000000000000000000600052602260045260246000fd5b6000600282049050600182168061058657607f821691505b6020821081141561059a5761059961053f565b5b5091905056fea26469706673582212209116e0fa21d7c7343fb3a2db671639168ba163985675a16d247da3feb4845e2d64736f6c634300080b0033",
  "immutableReferences": {},
  "source": "// pragma solidity 0.5.17;\npragma solidity 0.8.11;\npragma experimental ABIEncoderV2;\n\ncontract FileStore {\n    string[] private cids;\n\n    // constructor() public {\n    //     cids = [];\n    // }\n\n    function saveCid(string memory cid) public {\n        cids.push(cid);\n    }\n\n    function getCids() public view returns (string[] memory) {\n        return cids;\n    }\n}\n",
  "sourcePath": "/home/node00/proj/tests/chainsafe-smart-contract/contracts/FileStore.sol",
  "compiler": {
    "name": "solc",
    "version": "0.8.11+commit.d7f03943.Emscripten.clang"
  },
  "schemaVersion": "3.4.4",
  "updatedAt": "2022-01-30T11:46:55.091Z",
  "networkType": "ethereum",
  "devdoc": {
    "kind": "dev",
    "methods": {},
    "version": 1
  },
  "userdoc": {
    "kind": "user",
    "methods": {},
    "version": 1
  }
}